:10000000001000207D3B00006D3B00006D3B0000B8
:1000100000000000000000000000000000000000E0
:100020000000000000000000000000006D3B000028
:1000300000000000000000006D3B00006D3B000070
:100040006D3B00006D3B00006D3B00003F25000054
:100050006D3B00006D3B00006D3B00006D3B000000
:100060006D3B0000772F0000832F00008F2F0000D2
:100070006D3B00001B300000253000006D3B000090
:0C0080006D3B00006D3B00004B070000D2
:10008C0010B58207D30EFF249C40E2438907090E6A
:10009C009940030004D58D481B071B0F083B00E05B
:1000AC008B489B089B00C01803681A4011430160E1
:1000BC0010BDF6B583B0040000270025854E2078CE
:1000CC00012802D13000493001E030004830009066
:1000DC006088401E8009401C80B20190684680896F
:1000EC00002814D1CC20205C012810D12000CC3069
:1000FC00007F002805D078480168080001D0200056
:10010C008847607B401C032100F032FD6173A07BAB
:10011C0001286AD168468089002866D12000CC303D
:10012C00807E012865D1F07A012810D1ADB20199F9
:10013C008D4253DAEA0020009030006B801803C81F
:10014C0023009033DB6A9A1803C26D1CEEE700990A
:10015C000F7008E021009031C96AE8000A180020ED
:10016C00002103C26D1CADB201998D42F2DB00255A
:10017C001CE090202058E900405C022815D0402853
:10018C0013D02100280000F01BFB2000CC30C36DE5
:10019C00180003D02A00009920009847336C1800EF
:1001AC0003D022000099280098476D1C2089ADB21D
:1001BC008542DED300250BE0EA0020009030C06AB7
:1001CC00801803C8230090331B6B9A1803C26D1C54
:1001DC00ADB201998D42EFDB0120F072200000F0EE
:1001EC0015FB01222100B08B0DE0684680890028A8
:1001FC000CD1B783200000F07FFBB08B6188884264
:10020C000FD20122210000F069F80AE0E08FC02132
:10021C0089000143E1870498002802D0200004994A
:10022C00884705B0F0BDF8B50400012700F08FFD3C
:10023C0000F078FD274D2000D030406DA862A87AE0
:10024C00002840D1BE045A4806602000D030C17D41
:10025C001220FFF715FF5748066000F059FD00F01B
:10026C00ABFD00F083FD00F08CFD00F0AAFD002634
:10027C00AE73A88B2100D031496809182278002A66
:10028C00097806D16970D0216158085C68717B4887
:10029C0005E0E970D0216158085CE8717848026883
:1002AC00618B2000FFF705FFA88B6188884204D280
:1002BC0000F041FEAF72002705E0AE72D034206D25
:1002CC00010000D080473800F2BD00001CED00E0BA
:1002DC0000E400E06C00002004040020F4B50400ED
:1002EC000D0000F015FD2E009C36B06A2700297811
:1002FC00002909D161000904890B40184168006884
:10030C0000F072FD082005E0B9004158002000F013
:10031C006BFD0A2000F075FD2C00CC34684600788B
:10032C00012805D1A068C05D00F0DDFD606804E027
:10033C002069C05D00F0D7FDE068C05D00F0E0FD15
:10034C0030687900405A00F089FDF06AC05D217E6A
:10035C0003E0C0B2002800D0401E0A00511E120655
:10036C00F7D14949C0B2085C00F0A5FD20780128FE
:10037C0008D1002000F02CFD6069697B405C00F026
:10038C005EFD0CE0002000F05AFD2078022801D020
:10039C00032801D1012000E0002000F019FD00F03D
:1003AC003CFD207E00F040FD00F0B2FCF1BD0000F1
:1003BC0080E200E000E100E0FEB50500E4202A5CEC
:1003CC000800D0402F4C227B677A0026002F2FD0BC
:1003DC00238B012A07D1A28B290000F0D3FA02212A
:1003EC002173667212E0A18A814209D3618A884224
:1003FC0006D3A28B290000F0C5FA0121217305E078
:10040C00781E6072608B400860831843208328003C
:10041C009030C068A18B4900228B42529035E8681D
:10042C00A18B4900405A00F019FD00F084FDF7BD86
:10043C002F001037022A0BD17878002815D001989C
:10044C00002819D00A0039782800019B9847F7BD7D
:10045C00A18B280000F004FE80219022AA58C00035
:10046C001154F88D89010143F9850298002802D0B6
:10047C002800029988472673F7BD00001804002055
:10048C00000400206C00002024010020F8B50400BA
:10049C000026002769464E80684600F050FCE42098
:1004AC00205C7D4D618B002933D069460988C140A1
:1004BC00684641808020C000A98A814202D2698AA4
:1004CC00814203D3C82068828000A882298B688B64
:1004DC004840297B2278002A09D1002905D1694698
:1004EC004988AA8A914200D32883AB6B08E0002983
:1004FC0005D1698A6A465288914200D32883EB6BF6
:10050C002000E430426B684601882000FFF754FF5E
:10051C00A5E021008431496CAA8B8A5C824205D209
:10052C0069460988801AC14068460180802022589B
:10053C001000684603D001882000904700E0008836
:10054C0021008431097A002958D169460880534822
:10055C00836818000AD02000E4300079002805D008
:10056C0068460288A98BC9B22000984722006846C9
:10057C000188A88B6B6B9847694608804748406890
:10058C00002817D02000E4304079002812D0A98B25
:10059C00200000F065FD688421008431C968C0002A
:1005AC000B5C68460288A98BC9B220003B4F7F6860
:1005BC00B847070084202358180004D03A00684636
:1005CC00018820009847200084300069A98B4900DD
:1005DC006A4612884252A88B618888420ED2A07B50
:1005EC00012808D12000E4308078012803D12000B4
:1005FC0000F00CF902E0200000F07EF9A88B618875
:10060C00884221D16E84AE726078012803D120001B
:10061C0000F0B3FD10E020780221002802D1204820
:10062C00417003E0012801D11D480170E08F1D4984
:10063C000140E187A673EE72608B00280FD1A07B7E
:10064C0001280CD0AE830AE021008431097A0029FC
:10065C0003D101222100FFF741FE00F06CFC207851
:10066C00002803D10E494978022905D0012812D15E
:10067C000B48007802280ED100F059FB00F06EFBFD
:10068C002000E430C06B010002D08047E434E66304
:10069C00E88A05490880F1BD6C00002004040020A4
:1006AC00E8030020FFFE00003C080040F8B50700FE
:1006BC00BC1C208B401E20830025404EB572208B25
:1006CC00002801D178217D54380000F007FE002865
:1006DC00208B11D1002816D0A08FC0218900014396
:1006EC00A18784480168080001D0380088470120A0
:1006FC00B07200F020FC06E0002804D002207C49F7
:10070C00087000F0FDFD228B97489849237B012B44
:10071C0002D1002A00D104E0002A01D10D8005800D
:10072C00F1BD0D800580B5722088B083A08F80212B
:10073C0049000143A1873800FFF775FDF1BD38B5BD
:10074C0000F030FB00F024FB694C8948007801284C
:10075C0011D1884D286800282FD000F0E8FA072026
:10076C002178C900014321706178C9000843607089
:10077C002868804731BD114D0020A97B0129A87341
:10078C0011D1A872E88A7C4908800220617804297A
:10079C0001D1607003E02178042900D12070012080
:1007AC007649087031BDE86A010000D08047A86A1C
:1007BC008047286B010000D0804731BD6C000020C1
:1007CC007EB50E0090217158C000081844798079CC
:1007DC00029017E0A004000E31009031C96AC000ED
:1007EC000D1803CD083D0090019101200021A206B7
:1007FC00920E00F019FE009A019B1043194303C599
:10080C00641CA4B20298A042E4DA77BDF1B586B0BC
:10081C0000245B4EB58B28E0A804000EAF06BF0E7B
:10082C000699BC310968C0000818029003C804AAD4
:10083C0003C204A803C83A0000F008FE01220023FA
:10084C00024012D004A803C800900191012000219D
:10085C003A0000F0E9FDC043C943009A019B1040E7
:10086C001940029A03C20124B5836D1C0698408876
:10087C00ADB2854201D2002CCED0002529E0A804CF
:10088C00000EAF06BF0E0699BC310968C0000818EF
:10089C00029003C804AA03C204A803C83A0000F0DB
:1008AC00D5FD01220023024012D004A803C80090F9
:1008BC000191012000213A0000F0B6FDC043C9436C
:1008CC00009A019B10401940029A03C20124B5837F
:1008DC006D1CB08BADB2854201D2002CCFD0002C58
:1008EC0002D106984088B08307B0F0BD000000002C
:1008FC00E80300200004002070B5214A948B01000D
:10090C0090310B681578002D09D0D18BCD005D1975
:10091C00AD79AC420ED0641C23E0401CD083D08B4C
:10092C00C4001D5D402DF8D001201070086800191E
:10093C00447916E0491CD183801C01E0491CD18309
:10094C00D18BCC001C19C5882678402E01D1A94228
:10095C00F4D3A94204D1048800201070D08300E0A5
:10096C006479948370BD0000F4000020F200002034
:10097C00EC030020F40300203C0800404604002057
:10098C006C000020F8B506000C0010001A000025C1
:10099C00C8310B68185C097F03E0C0B2002800D096
:1009AC00401E0B00591E1B06F7D100BF46A10006C6
:1009BC00800D085800900F2049A193049B0F9B00B9
:1009CC00CF58BC464AA7130A03409B00FB58674606
:1009DC00FF18BC4656A7130903405B00FB5E674635
:1009EC00FB1800BF5AA702405200BA5E9A1823782F
:1009FC00012B04D180239B00F31A0A2403E08023EB
:100A0C009B009B1B0B24009E1BB25E43264192193C
:100A1C0080239B010E242E001D003543AE04B60F1F
:100A2C00B6008F59BC4600BF31A72E0A0640B6004F
:100A3C00BE596746BF19BC463DA72E090640760035
:100A4C00BE5F6746BF19BC4641A70F262E407600F5
:100A5C00BE5F6746BE19B24202DA2E001D00754019
:100A6C005B08641ED7D12800F2BD10B50300080046
:100A7C001100B4311278012A01D10A6800E04A68E9
:100A8C005C00E3181B04DB0BD2185388138093888B
:100A9C0053809080097E012901D003290CD1518803
:100AAC001288914209D3824209D2884200D20100B5
:100ABC00002900D10100080010BD904201D31100A3
:100ACC00F6E78142F3D3F3E796C90400144402001D
:100ADC000A220100D68300001A4F00005E1A0000A3
:100AEC0000000000AC070100580F0200143E030088
:100AFC00000000005E1A0000BC3400001A4F000019
:100B0C0078690000D6830000349E000092B8000083
:100B1C00F0D200004EED0000AC0701000A220100EB
:100B2C00683C0100C656010024710100828B010053
:100B3C000000A3024605E9078C0A2F0DD20F75128F
:100B4C001815BB175E1A011DA41F4722EA248D2716
:100B5C00000043008700CA000E0151019501D80125
:100B6C001C025F02A302E6022A036D03B103F40325
:100B7C000022030A8B420BD203098B4219D2430881
:100B8C008B422ED2411A00D2014652411046704778
:100B9C00FF2209023FD012068B4205D31212090222
:100BAC008B4201D31212090203098B4219D300E0C4
:100BBC00090AC3098B4201D3CB01C01A52418309E4
:100BCC008B4201D38B01C01A524143098B4201D392
:100BDC004B01C01A524103098B4201D30B01C01ABD
:100BEC005241C3088B4201D3CB00C01A5241830837
:100BFC008B4201D38B00C01A524143088B4201D364
:100C0C004B00C01A5241884200D3401A5241CFD2F5
:100C1C0001461046704708B500F028FC08BD30B4FA
:100C2C00012100220368001D002B0BD00468001D5D
:100C3C000C4202D04D466D1E64192260241D1B1FF0
:100C4C00F0D0FAE730BC7047F3B581B0002401272F
:100C5C00A74026000836E51F6846808838421AD01F
:100C6C00022C02D221000E3111E0E01E01D1F1B2B2
:100C7C000FE0601F03D121000C31C9B209E0032D34
:100C8C0002D22100103102E005D121001131C9B28C
:100C9C00002000F01FF80298BFB2384016D0062C86
:100CAC0006D3002D01D1F1B20DE02000093801D19D
:100CBC00A11C07E020000B3802D1A11DC9B203E032
:100CCC0021000A31C9B2002000F004F8641C102C79
:100CDC00BDD3F7BD30B5894AC00110184A08831836
:100CEC000122CC0706D530241C5D2407240F1025C7
:100CFC00254304E030241C5DF0252540154330339A
:100D0C001D7040184021415C0A434030027030BDD8
:100D1C0081B08C480178009169460978C909F9D1EC
:100D2C0001B0704780B5FFF7F3FF874822E080B52C
:100D3C00FFF7EEFF84480178FD220A401DE010B554
:100D4C000400FFF7E5FF81480088208083E080B530
:100D5C00FFF7DEFF7C48017804220DE080B5FFF739
:100D6C00D7FF79480178FB220A4006E080B5FFF7EF
:100D7C00CFFF7748017802220A430270FFF7C8FFC1
:100D8C0001BD80B5FFF7C4FF714801780122F3E77C
:100D9C0080B5FFF7BDFF6E480078C00701D5FFF79F
:100DAC00F0FF01BD80B5FFF7B3FF694800788007FD
:100DBC0001D5FFF7DBFF01BD80B5FFF7A9FF9A480E
:100DCC00D8E780B5FFF7A4FF984801780122D3E754
:100DDC0010B50400FFF79CFF95480178EF220A40FC
:100DEC0021011023194034E070B505000C00FFF709
:100DFC008FFF904E3480FFF78BFF7580FFF788FFD5
:100E0C0070BD10B50400FFF783FF8B48017809070C
:100E1C00090F22010A4302701DE080B5FFF778FF2D
:100E2C00854801780422A7E710B50400FFF770FF8E
:100E3C0082480178F8220A406107490F09E010B591
:100E4C000400FFF765FF7A480178F0220A40210779
:100E5C00090F11430170FFF75BFF10BD38B504009B
:100E6C00FFF756FF764D288876490140C020800157
:100E7C00204008432880FFF74BFF28887249014027
:100E8C00F0200001204008432880FFF741FF28880C
:100E9C006E4901402006000F000108432880FFF72F
:100EAC0037FF28886A4901402007000F0843288033
:100EBC00FFF72EFF31BD38B50400FFF729FF654D54
:100ECC002878CF2101403020204008432870FFF7BC
:100EDC001FFF2878F02101402007000F08432870DD
:100EEC00FFF716FF31BD10B50400FFF711FF5A488C
:100EFC000178FC220A40A107890FAAE700440041AF
:100F0C0038B50400FFF704FF0F4D2878FD21014090
:100F1C002970FFF7FDFE2879FC210140A007800F06
:100F2C0008432871FFF7F4FE287802210143297049
:100F3C00FFF7EEFE31BD80B5FFF7EAFE3F480178C2
:100F4C00802219E7012C0042002C00421C2C00428C
:100F5C000A2C0042F8B501000027002400250022CD
:100F6C00C4200B5804E02E0090001D583543521C31
:100F7C00488882420BDA08780028F4D1D00018187F
:100F8C00260004683443406828430500EFE7A9B203
:100F9C00A0B2FFF759FEFFF7BBFE304E3770FFF7DC
:100FAC00B7FEF08A0443F482FFF7B2FEB08A054321
:100FBC00B582FFF7ADFE3079F72101403171FFF7B3
:100FCC00A7FE3079FB2101403171FFF7A1FE30798A
:100FDC00FC2101403171FFF79BFE307B9F210140CA
:100FEC003173FFF795FE307BEF2101403173FFF732
:100FFC008FFE307BF02101403173FFF789FE707951
:10100C00012101437171FFF783FE30780421014304
:10101C003170FFF77DFE3078022101433170FFF70C
:10102C0077FEF1BD00000000082C0042092C0042A4
:10103C000C2C0042102C0042202C00420D2C0042A3
:10104C00182C0042FFCF0000FFF000000FFF000043
:10105C00F0FF00001A2C00421B2C0042002C004216
:10106C0070B502000024002013890CE0902555591E
:10107C00E600AD196E79B14204D3AD798D4201D33E
:10108C0020001C00641CA4B29C42EFD370BD000075
:10109C0070B51C00031D903005689E88F600AD19D4
:1010AC002C7104689D88ED0064190025E5700468B6
:1010BC009D88ED006419E578C7262E40E67004681B
:1010CC009D88ED006419E5785207920E2A43E27070
:1010DC0002689C88E4001219517102689C88E40033
:1010EC001219917101689A88D2008918CA78FC2467
:1010FC001440CC7000689988C9004018C178049AD3
:10110C009207920F0A43C2709888401C98801888E6
:10111C00401C188070BDF9B585B00C0011000C9AFC
:10112C000D9B0E98012C01D0042C05D10090059834
:10113C00FFF7AEFF07B0F0BDB14F0F9D109E022C14
:10114C000CD13C682700F5D00396029501900093D2
:10115C0013006846027E0598A047EBE7032CE9D103
:10116C007C682700E6D0039602950190009313004B
:10117C006846027E0598A047DCE7F8B50400002716
:10118C00A07B00281BD1208B618A411A89B2608216
:10119C00A08A4018A08204E0C838A082A07D401C20
:1011AC00A075A08AC828F7D2E07B002808D0A17DC2
:1011BC00884201D2E77303E0401AE07300E0A775A0
:1011CC002000EC30016B080002D02000343088473E
:1011DC00A7732689002507E0E9B2200000F008FA81
:1011EC00A17B0843A0736D1CB542F5D3200000F021
:1011FC0075F80225A07B01281BD1EE0181480089DE
:10120C0001280FD100F07CF8E08F0643E6872078A8
:10121C00012802D17B48057020E000281ED17948B6
:10122C0045701BE0E08F0643E6872000FEF7FBFFCE
:10123C0014E075480178012900D10770E08F7349DB
:10124C000140E1872078012802D16E48057003E047
:10125C00002801D16B48457000F052F86088C01D21
:10126C00C00800222100903102E00D6AAF54521CDC
:10127C008242FAD3228911E00868FB00C05C182373
:10128C0018420AD07805000E0B6A1B181878012535
:10129C007E07760FB54005431D707F1C9742EBD33C
:1012AC002000EC30816A080005D0EC20205C00287E
:1012BC0001D0200088472078002803D15149497873
:1012CC00022905D1012808D14E480078022804D003
:1012DC00EC34606B010000D08047F1BD49490A89AC
:1012EC00C38C002B08D0CB885B1CCB80C08C9BB2F2
:1012FC00834202D3012200E000220A810889704750
:10130C00404800210181C1807047F8B50400A71C3A
:10131C000026BE87F888009000250BE0200048309E
:10132C00806CE900405C402803D0E9B2200000F05A
:10133C009FF86D1C00988542F0D33E823888F88760
:10134C0048216052C11DC908220048321172797AB5
:10135C00220048321174F9884834218378860020A1
:10136C00F2BDF2B582B0060000206946097AC900C8
:10137C00009190217158009A89184A796B461A711C
:10138C00370008370C793A7FD440042C00D204245F
:10139C006A46127A3B889A4230D2CA78FB231340B1
:1013AC00CB70C02590217158009A8918C9782942B0
:1013BC0013D168460179300000F0FBFA614209B2A2
:1013CC0081420ADB797E002907D090217158009A5E
:1013DC008918CA7804231343CB7090217158009A52
:1013EC008918C978294209D00549CD68290005D04A
:1013FC00230068460279017A3000A847FEBD000040
:10140C00D4030020E803002077000020FFFE00003A
:10141C0010B50300C9B201E019705B1C1400621E08
:10142C00002CF9D110BD0000D2B2203A03D3010038
:10143C009140002070475242D0415242203291409C
:10144C004140D0409040414070470000D2B2203A19
:10145C0003D30800D040002170472032D141D04046
:10146C0048409140D1404840704700007047000010
:10147C0038B505000C0000F00CF8E10028009030A5
:10148C00012203685A5422352A78006840184270A9
:10149C0031BD70B5C9000200903213685E187379C3
:1014AC00B47902253570C68F3543C5870020156881
:1014BC006918887003E080201169C8545B1C9BB2CA
:1014CC009C42F8D270BDF8B50500CF002E009036C6
:1014DC003068C01981790091447907E03068C019EF
:1014EC004278E1B2280000F007F8641C009880B242
:1014FC00A4B2A042F2D2F1BD30B54B00040094343A
:10150C006168C9182468E45A08232325455DAA425A
:10151C0001D30C8008E00A88944201D2521E02E0EA
:10152C00A24204D2521C0A80C18F0B43C38730BD28
:10153C0070B5040090202058C90040188679457970
:10154C0004E0E9B2200000F005F86D1CADB2AE422B
:10155C00F7D270BDFCB502009432D3685B180193CE
:10156C001B784C0000945468009D645B1568009EC9
:10157C00AD5B163080260827AC4212D204781B19BA
:10158C00019C2370D36859180B78047A803CE4B220
:10159C00A3422BD30E705168009A89180A88521CEA
:1015AC0013E0A54216D204781B1B019C2370D36850
:1015BC005918C479331B0C78DBB2A34216D30E70C6
:1015CC005168009A89180A88521E0A80018D0F43AF
:1015DC000785F3BD812B02D3581E019B1870D06870
:1015EC0040180178802901D2491C0170F3BD00001C
:1015FC00F2B584B004000025C8000090902020585B
:10160C00009940180679C1788907890F491CCE408A
:10161C006A46158103950078402806D06846017CFF
:10162C002000FFF79EFE69460881022E00D202269A
:10163C0090202058009940180079801B80B20190AE
:10164C003120205C022819D0E920205C002815D01C
:10165C001A480268100003D06846017C20009047AD
:10166C00F02020586946097CC908405C01216A4673
:10167C00127C5207520F9140014003919020205848
:10168C000099401827000F378026F60001780129B1
:10169C0016D0022932D0042958D0082900D109E1EA
:1016AC00102900D1A8E0202900D125E1402900D142
:1016BC0062E1802900D16BE171E100BF34040020AC
:1016CC000125E08F69020143E1876846017C200017
:1016DC00FFF7F9FE90202058009940184178491ED8
:1016EC00417090202058009940184078002804D16F
:1016FC006846017C2000FFF7CCFED8E00399002956
:10170C000DD1C07840070BD500226846017C200023
:10171C0000F058F90500E08FB1000143E1873EE18C
:10172C00029800B200F040F990216158009A891893
:10173C000A79904200D21FE1787C3870042008703E
:10174C0090216158009A89188D7010E1029800B2AE
:10175C0000F02AF990216158009A89180A79904270
:10176C0000D2EBE0787C38708878401C88708D480B
:10177C004368180007D02200029909B26846007C21
:10178C009847002807D1787B002804D00125E08FEA
:10179C00E9020143E1879020205800994018817894
:1017AC007A7B914227D3E18F01220A43E287E18FB2
:1017BC0002220A43E2871021017000209021615817
:1017CC00009A891848709020205800994018C078C9
:1017DC00C02108420FD089480269100003D0684626
:1017EC00017C2000904785488268100003D0684631
:1017FC00017C20009047D2E0C07840070BD58022B6
:10180C006846017C200000F0DDF80500E08FB10097
:10181C000143E1874BE0029800B200F0C5F8019952
:10182C00884209DA082090216158009A88540125D1
:10183C00E08F0643E6873AE0E08F01210143E18720
:10184C00902020580099401881787A7B914201D2DF
:10185C00491C81709020205800994018C078C021F4
:10186C00084207D065488268100003D06846017CA6
:10187C0020009047387C002819D090216158009A9C
:10188C0089184A78824203D2F879101848700EE011
:10189C006846017C2000FFF7EBFD0125E08F690213
:1018AC000143E18721006846007C00F098F8787CC1
:1018BC00387074E0797C3970807800283ED00298BA
:1018CC0000B200F071F80199814209DA10209021E0
:1018DC006158009A8854E08F01210143E18703E0AD
:1018EC000125E08F0643E687903420680099401864
:1018FC008178491E817052E040790190B87C2100BA
:10190C0090310969019A8A18137880210B4200D012
:10191C0080385B1C1370220090321269019BD25CE0
:10192C009023E358009FDB190193DB785B070BD402
:10193C000A4203D010200199087030E06846017CFF
:10194C002000FFF7A6FD2AE0C0B282420FD3684602
:10195C00017C2000FFF78CFD0125E08F290301435A
:10196C00E18721006846007C00F039F817E001257A
:10197C00E08F0643E68712E0F87900280FD038781C
:10198C0000280CD16846017C2000FFF7D1FD06E051
:10199C00397D41706846017C2000FFF794FD2800DA
:1019AC0005B0F0BD34040020002800D5002080B222
:1019BC007047490094300268525A4068405A101AD5
:1019CC0000B2704710B5C900903003690468641800
:1019DC0064791A55202200684254012010BD9022CF
:1019EC008A58C00010184A8B8379D2184079101A83
:1019FC00401C48830020024908707047D403002023
:101A0C0077000020F9B58FB00E0014000025019569
:101A1C000F98002801D040680190DC48007800281D
:101A2C0001D00325AEE10F98002802D001980028C0
:101A3C0001D10225A6E1008800280DD0019840882C
:101A4C00002809D0019824300490C069002803D0E4
:101A5C0004990A8C002A01D1042593E10199897B10
:101A6C00052901DB06258DE10021FFF7D1FCC948D2
:101A7C0006604460C64C012020700198008860808C
:101A8C00A58001984088E080258101980079A0729A
:101A9C00E572E5816582A582A57520001C3001994F
:101AAC00891D182200F05EFA01984C300590007ADE
:101ABC00694608772000CC3003906846007F039974
:101ACC0008770598407A039948770599C97A2200D6
:101ADC00EC3200921170059A127B039BDA77059A0F
:101AEC00527B009B5A70059A927A6B465A776A46DB
:101AFC00527F039B9A77049AD269D21C03239A4390
:101B0C000B922200883202920B9A029B9A60019AE5
:101B1C0052880B9BD6009B19DB1C0326B343029EF9
:101B2C00F360019E3688069676000896089E9E19EC
:101B3C00F61C0327BE430A96029F3E610A9E089F2D
:101B4C00F619F61C0327BE430996029F7E61099E77
:101B5C00089FF619F61C0327BE43029FBE61069F21
:101B6C00F719FF1C0326B743029EF762BC46069E7C
:101B7C0006277E436746BE19F61C0327BE43002981
:101B8C001CD000998E6191007618F61CBE4300990A
:101B9C000E62D11D8F107F0F7918C9107118C91CD6
:101BAC000326B143009EF161059E367BF600891930
:101BBC00C91C0326B143029E716301E002994E6376
:101BCC000299496B0831C91C0326B143029EB163CB
:101BDC000831C91C0326B143029EF161019E37797D
:101BEC000C267743C919C91C0326B143029E3162E6
:101BFC00019E36798E19F61C0327BE43029FBE62E6
:101C0C00002831D0D21D9010400F8018C01032180F
:101C1C00D21C03208243009842600698C01D0D9090
:101C2C000C908010400F0C9FC019C0101218D21CC1
:101C3C000327BA43009FBA601018C01C03229043BC
:101C4C00009AD060089A8018C01C03229043009A16
:101C5C0010616A46127F002A16D0069A6F467F7F63
:101C6C007A43520080180AE06846007F00280BD0A7
:101C7C000698C01D8210520F1018C0103018C01CCE
:101C8C0003229043009A506105984068009A1063B3
:101C9C00009A55638648009A9063E58763640A98B6
:101CAC00E06409986066666500984068E066009894
:101CBC00C06820670098006A6067E1650B98A066B1
:101CCC00A3630498406A0299C8630198006A029958
:101CDC000864049800780399087004984068039984
:101CEC00486004988068039988600498C0680399D8
:101CFC00C8600498006903990861049840690399C5
:101D0C0048610498407E039948760498007E0399B4
:101D1C0008760F98007A0399C8760598007803998D
:101D2C0088766573658320007C3001995C311022C4
:101D3C0000F02CF9E06F0099C86220003C307C491F
:101D4C0008607C487C4908607C4812498860200007
:101D5C00FFF700F90F484068010000D08047109849
:101D6C00002802D00120109988471699080001D04C
:101D7C002000884702980068010000D080470120AD
:101D8C0002490870280011B0F0BD0000E8030020E3
:101D9C0030010020F8030020FFB585B0002468480E
:101DAC000078012801D0032454E06846007D052802
:101DBC0001DA002801D108244CE0082B08DA0F9F27
:101DCC00042F05DA109D082D02DA119E002E01D188
:101DDC0002243FE05B4949886A46127E8A4216D249
:101DEC006A46127F8A4212D2564A92888A420ED290
:101DFC00012806D004280CD16946097E4A1E1142DE
:101E0C0011D16946097E6A46127F914201D007249E
:101E1C0020E0022801D0032805D14A48807A002806
:101E2C0001D10A2416E048480068010000D0804720
:101E3C004448008930700494039502970E980190E1
:101E4C0008A8007800906846037F027E017D3D481B
:101E5C00FFF761F9200009B0F0BDF8B504000325C7
:101E6C0037480078002803D035480078042801D181
:101E7C000320F2BD0227032C01DB0220F2BD314E00
:101E8C003000FFF742FAB18871830121002C0BD08E
:101E9C003474B28872743173012C03D100222B4B31
:101EAC001A7001E02A4A1570B17325490F70F2BD02
:101EBC00191F0000F8B500260024214D2B78042BA7
:101ECC0001D1012420E02B78022B01D003241BE04C
:101EDC001C4F3B0018330093DE847B1C5E75009E08
:101EEC0030801970902040003A503800FEF79BF972
:101EFC00002809D10420287016480188164A118040
:101F0C00018840220A4302802000F2BD10B50D4C1E
:101F1C006078012804D10C480068010000D080478B
:101F2C000E480F4908602000FEF7B0FA10BD000003
:101F3C00CC000020B9060000A8000020A13A000047
:101F4C00E803002030010020F8030020740000207A
:101F5C00700000203C08004082000020770A00003E
:101F6C00A0000020124207D08B0706D00B78491C2A
:101F7C000370401C521EF7D87047830706D00B78AD
:101F8C00491C0370401C521EF9D1704770B4103AB2
:101F9C0003D378C9103A78C0FBD2530701D318C9C0
:101FAC0018C001D508C908C0D20704D30B88038018
:101FBC00891C801C002A01D50B78037070BC7047FB
:101FCC000121C006C00E814080480160704780210D
:101FDC00C905016000214160FF2202818172C1723A
:101FEC0096229201026201222423C2542523C25458
:101FFC002623C1542723C154816288225203C26014
:10200C002C23C1542D23C154016341638163C163EB
:10201C0041610182C1760176017741761322827685
:10202C00417770473122825C01238B40134331305E
:10203C00037070470068C07BC009704738B5050055
:10204C002C682800FFF7F6FF0028FAD12088604999
:10205C000140218031BD38B5040025682000FFF710
:10206C00E9FF0028FAD18020687131BD59490A88EE
:10207C0059480388934206D101230B714B889A1857
:10208C004A80002101E00188491C0180704710B58D
:10209C00524C02225249200000F024FA0221200066
:1020AC0000F039FA10BD1FB56846A0210901018066
:1020BC00012181700022027102920392026001716F
:1020CC00464C6A464749200000F0D8FA200000F040
:1020DC005BFA1FBD80B5FFF7E6FFFFF7D8FF2121A4
:1020EC003E4800F019FB01BD38B505003E4C206A96
:1020FC00401C2062FA218900FEF73AFD002907D125
:10210C00012020772000FFF799FF2000FFF7A3FFA5
:10211C003649280000F06AFC31BD80B500206946C4
:10212C00087001224A7088700A70192000F080FC37
:10213C0001BD80B52E48032201003831CBE180B5BA
:10214C002B48032201003831001D00F0D7FC01BDE3
:10215C0030B591B06846FFF73AFF962080010890A1
:10216C00C4208003039023480E9023480F90002036
:10217C00C0430C900D901E4C6A462049201D00F067
:10218C003FFE0028F8D16568280000F0E3FEFFF759
:10219C0017FF6068C0690028FBD128680221014341
:1021AC0029600022BB49201D00F090FC0122BA4995
:1021BC00201D00F08BFC0021201DFFF733FF0121B7
:1021CC00201DFFF72FFF11B030BD000000E100E033
:1021DC00FDFF0000C400002044040020BC030020CC
:1021EC007920000000140040640300209F150000BB
:1021FC00280300200200080002000900000C004225
:10220C00F0B58FB000F0CBFE0124A4490C70BFF3E5
:10221C005F8F62B600F0CEFEFFF75CFF01A80021D5
:10222C0001708170C02189008180002181718160E1
:10223C004170818181730174069107910177099135
:10224C000A918162818596490185964F01AA96492A
:10225C00380000F09FFA00229449380000F0C2FECA
:10226C00386800F08BFA924D2818007B40B2FFF7CB
:10227C00A7FE787E01210143797639684C73FFF70C
:10228C0067FF00F00BFFFFF748FF684694A10A6850
:10229C000260600690618748016804220A4302606C
:1022AC0040E0022000F00AF9A87A002804D128792D
:1022BC00002801D000202871687A002806D0E87820
:1022CC00002803D1EC70052000F0F8F8687A00289B
:1022DC0004D1E878002801D00020E870287A002882
:1022EC0006D0A878002803D1AC70062000F0E6F8E0
:1022FC00287A002804D1A878002801D00020A870E2
:10230C00E87A002806D06879002803D16C71032084
:10231C0000F0D4F8E87A002804D16879002801D0BC
:10232C000020687100F027FF6348006801780129DC
:10233C00F8D1002101706048006881690978012298
:10234C000A40EA7181690978490801220A402A7217
:10235C0081690978890801220A406A7281690978C1
:10236C00C90801220A40AA7280690078000901217B
:10237C000140E9720020687028703800FFF75EFE9B
:10238C003800FFF768FE09E02878002806D1E879C4
:10239C00002803D12C70042000F090F8E879002874
:1023AC0067D000F0E8FE4448006881690978012292
:1023BC000A40EA7181690978490801220A402A72A7
:1023CC00806900788008012101406972287A002810
:1023DC000FD0A87800280CD12C70AC706878401CF9
:1023EC006870C0B2042804D100206870072000F087
:1023FC0065F8287A00282DD1A87800282AD000204A
:10240C00A87027E02C7000F0B6FE2B48006881699C
:10241C000978890801220A406A72806900780121D2
:10242C000140E9713E683800FFF704FE0028FAD13C
:10243C003088022101433180387F01280AD10820DD
:10244C0000F03CF83800FFF7F9FD3800FFF703FE09
:10245C0000203877687A002802D0E8790028D1D19A
:10246C00687A002890D1287801288DD10020E87056
:10247C0094E7A87A002800D116E72879002800D024
:10248C0012E72C71A879401CA871C00700D408E78A
:10249C00012007E74B2100003F210000FD00002038
:1024AC009F1500006403002000180042F520000076
:1024BC00B600002010ED00E0CC00002080B501003B
:1024CC00004801E0280300209022027041709721FF
:1024DC00817003220100001D00F003FB01BD000010
:1024EC000044004130B503000020022A06D01D79BB
:1024FC00002D0CD0012D0CD1022A0ADA94001C19E3
:10250C00A160998A012494400C439C8230BD032A1B
:10251C00F4DB172030BD026801238B40022901D166
:10252C00802101E09907890FD171C18A0B43C382C5
:10253C00704738B50F4800680468C28A818A114018
:10254C00227AE379134080252B4203D049070FD51B
:10255C0000690CE001252B4203D0C90708D580681F
:10256C0005E002252B4004D0294201D0C0688047E9
:10257C00257231BD3C0400200068807A000601D52C
:10258C00012070470020704738B5040025680820EA
:10259C004A4908602000FFF7EFFF0028FAD128888D
:1025AC0002210143298031BD38B50400256808207B
:1025BC00434908602000FFF7DFFF0028FAD1288884
:1025CC0040490140298031BD38B505002C68FFF722
:1025DC00EBFF0020A882E8822800FFF7CDFF00283F
:1025EC00FAD1208801210143218031BDF8B50700C3
:1025FC000E003C68308820800025B078002824D05C
:10260C00012839D120882080F078002803D0208838
:10261C008021014321803800FFF7AEFF0028FAD15A
:10262C002A00A80030188168380000F051F86D1CA1
:10263C00EDB2002DEFD03079002804D060888021D5
:10264C00C901014361800020F2BD208804210143AF
:10265C002180F07800280FD13800FFF78DFF00287B
:10266C00FAD12A00A80030188168380000F030F840
:10267C006D1C022DDFDAEFE71720F2BD38B5040030
:10268C00150021601048016820220A4302600220D4
:10269C0069460870042000F034FE042000F03AFE75
:1026AC002000FFF791FFA878207128796071074806
:1026BC00046029002000FFF799FF32BD00E100E023
:1026CC0080E100E0FDFF0000180400403C04002005
:1026DC00F8B504000D00170026682000FFF74CFF2A
:1026EC000028FAD12179002908D0012912D1022F12
:1026FC000AD2B800301885610020F2BD032F03D236
:10270C00802149028D4201D31720F2BD7800301888
:10271C000583F1E71A20F2BD70B505000C002E6898
:10272C002879002801D0152070BD2800FFF724FF60
:10273C000028FAD1B48270BDA64A002803D0022822
:10274C000AD005D30CE010680143116000207047DB
:10275C00506801435160F9E7906801439160F5E7D7
:10276C001720704780210170002141700122827076
:10277C00C17070470068C07BC00970470100002021
:10278C00954A914204D00120944A914200D00020F5
:10279C0070470000F0B587B004000E00150000274C
:1027AC003000FFF7EBFF029006A800BF8DA10A884E
:1027BC00028005A88CA10A6802600020002182001A
:1027CC00A2189160401C0428F9DB217661768448BC
:1027DC000299890044502660A878082804D10299EF
:1027EC00491CC90700D4F2E020713088C00701D51C
:1027FC000520EDE0F07BC00602D43088800701D5BF
:10280C001C20E5E0287C00280BD06846FFF7AAFFC7
:10281C00A86969460870012048706869C0B200F068
:10282C0003FE287F00280BD06846FFF79BFF686AE1
:10283C006946087001204870286AC0B200F0F4FDA7
:10284C0005A8029949004018049001880220FFF75E
:10285C0073FFA878082804D1049841880220FFF758
:10286C006BFF69460F732878087306A80299405CC1
:10287C006946887103A96846807900F042FD684674
:10288C00807900F047FDA878A97901430820285EDB
:10289C0008430421695E01436846818068780028FA
:1028AC0006D06846808880210901014368468180F2
:1028BC002000FFF75FFF0028FAD16846808830803F
:1028CC00687B002800D00427A87B002802D03800A1
:1028DC00012707432000FFF74DFF0028FAD1FF2006
:1028EC003071002F05D02000FFF744FF0028FAD1EB
:1028FC007771AF7A00202918C97A002903D03900E2
:10290C00102787400F43401C0228F4DB2000FFF700
:10291C0031FF0028FAD1B7712000FFF72BFF0028F8
:10292C00FAD12079002825D0042802D0082837D0E5
:10293C004DE02000FFF71EFF0028FAD12820285C6C
:10294C0030742000FFF716FF0028FAD12920285CEC
:10295C0030752000FFF70EFF0028FAD12A20285CE2
:10296C0030762000FFF706FF0028FAD12B352878A7
:10297C0070762AE02000FFF7FDFE0028FAD1288DA2
:10298C0030822000FFF7F6FE0028FAD1688D3083E4
:10299C002000FFF7EFFE0028FAD1A88D708314E019
:1029AC002000FFF7E7FE0028FAD1A86A306120006A
:1029BC00FFF7E0FE0028FAD1E86AB0612000FFF7CB
:1029CC00D9FE0028FAD1286BF061002000E0172016
:1029DC0007B0F0BD1804004000180042001C004273
:1029EC001C040020121200004000800070B505008D
:1029FC000C002E682800FFF7BDFE0028FAD12879BC
:102A0C00002806D0042802D0082804D006E034742C
:102A1C0002E0348270BD3461002070BD172070BD9F
:102A2C00802101700021417001228270C1707047B9
:102A3C0038B505000C006846FFF7F2FF68468021A8
:102A4C0001702178417061788170A178C1706946FC
:102A5C00280000F0E9FC31BDF8B504000F001500AA
:102A6C00266800F0FBFCE08D002800D02AE0E5850C
:102A7C0000F006FDA7620520333420700120B075EC
:102A8C000020F2BDF8B504000F001500266800F018
:102A9C00E5FCA08D002800D014E0A58500F0F0FC2A
:102AAC0067620520322160540420B075207A00281A
:102ABC0001D02020B075607A002801D00820B075B4
:102ACC000020F2BD00F0DCFC0520F2BD9300C31821
:102ADC00D9603021415C012393400B4330300370AB
:102AEC00704780B5002A01D1172002BDC379002B95
:102AFC0001D11C2002BDFFF7AFFF02BD80B5002A3B
:102B0C0001D1172002BD8379002B01D11C2002BDFD
:102B1C00FFF7B8FF02BDF8B55D4980000C5820687E
:102B2C000500C1690029FCD1287EAF7D074030200B
:102B3C00205C3121665C0640F8071FD5E08D00282B
:102B4C001AD0A16A0878491CA1626179012906D1C1
:102B5C00A16A0200087800021043491CA162C0055A
:102B6C00C00D2885E08D401EE085000406D10120B3
:102B7C0028750220A87501E001202875B80709D531
:102B8C0002202875002033216054F00702D5200064
:102B9C00E1688847042007425BD0A18D002957D0FB
:102BAC00698B8906890E0A0702D50A00F7211140A4
:102BBC0000292DD08A0705D51A213222A154698B00
:102BCC0002221EE0014205D01E213222A154698B43
:102BDC00042216E0CA0705D513213222A154698BB1
:102BEC0001220EE0CA0605D542213222A154698B7E
:102BFC00102206E0890606D541213222A154698BA8
:102C0C0020220A436A83064223D0200061691DE01A
:102C1C00298DC905C90D636A1970626A521C6262FA
:102C2C006279012A05D1090A626A1170616A491C2C
:102C3C006162A18D491EA18509040AD12875002065
:102C4C0032216054B00704D520002169884700E088
:102C5C002875F80607D5102028752876F00602D5B9
:102C6C002000E1698847B80607D52020287528760A
:102C7C00300702D52000A1698847380707D50820FE
:102C8C0028752876B00602D52000216A8847F1BD48
:102C9C00980300200168C9690029FBD17047F1B580
:102CAC0084B00C000068029000F0FCFC01000E31B6
:102CBC0000226B469A8000251026208A009077020D
:102CCC00B8420BD0B702B8420BD0C027FF01B842B4
:102CDC0006D0F702B84205D1032603E0012501E036
:102CEC00012508262068E368034367691F430098A1
:102CFC003843237E1B0203432620205C47071F43D7
:102D0C000020009262680392002A10D080235B0599
:102D1C009A4220D12720205C00281FD1C8B200F095
:102D2C0021FB010001AA206A00F0F0FB12E0272031
:102D3C00205C002804D000962B0001AAA16A06E0B2
:102D4C00C8B200F00FFB00962B0001AA0100206A0C
:102D5C0000F0EDFB0090009900294FD1607E002817
:102D6C0002D0A07E029988730498FFF793FF6846FF
:102D7C008088029988813800039F07432720205CB4
:102D8C00002802D1380004270743607E8002217F8F
:102D9C0049020143607F000208432421615C49041D
:102DAC0001432520205C00040843E57A05430820F4
:102DBC00205EFF2805D0390080277F040F43054390
:102DCC0006E0E07E002803D038008027FF0407438C
:102DDC002C342078002803D14F480078800702D586
:102DEC003800802707430498FFF754FF029845608A
:102DFC000498FFF74FFF02980760002005B0F0BD64
:102E0C00F2B586B00600170008463060040000F0EA
:102E1C0049FC0100801C0E310091012521682940DC
:102E2C0001D0052076E02168890701D51C2071E0CE
:102E3C003A490A680123834013430B600024694616
:102E4C000C712D20385C087101A90098C0B200F0FB
:102E5C0058FA0098C0B200F05DFA00212D20385CC1
:102E6C0000F0A8FB38000B3001787171417EB17114
:102E7C00817EF171017C3172407C707239003000BE
:102E8C00FFF70DFF002845D18020694608704C7073
:102E9C00684685704C8030373868029078680390AB
:102EAC00B8680490F8680590002502A8A90040585D
:102EBC00002803D12900069800F098FB0021C94393
:102ECC00884206D06A46107069460002000E00F077
:102EDC00ABFA6D1C042DE8DB002081007118CC606E
:102EEC00401C0628F9D3B4627462F485B485302191
:102EFC007454312174543221745433203454306856
:102F0C0000F0D0FB0400064900F00FF80548A100C2
:102F1C004650002007B0F0BD0220004120040040C4
:102F2C00232B000098030020704770B5184A1378C3
:102F3C00002B0AD10024174DA60096197560336139
:102F4C00641C032CF8D3012313708000101841600B
:102F5C0070BD000080B569460FA213680B6000F0CD
:102F6C00A1FB6946085C40B202BD80B5002008494F
:102F7C004968884701BD80B50120054989688847A3
:102F8C0001BD80B502200249C968884701BD000017
:102F9C0088030020352F0000090A0B00704780B50C
:102FAC0000F0A6FCFFF7FAFFFFF7F8FFFFF7F6FFBC
:102FBC0001BD000038B50A4CFA25AD00002000F028
:102FCC0070F92900FDF7D4FD20602900FDF7D0FD34
:102FDC00606005200149086031BD000010E000E090
:102FEC000401002010B594000419A160017E022A8E
:102FFC0001D1102202E0032A03D120220A430276D7
:10300C0003E0012393400B430376002010BD80B5F1
:10301C00002000F006F801BD80B5012000F001F899
:10302C0001BD70B5144980000C582068807B217E4E
:10303C000140657E0D400126354204D02000A16878
:10304C008847206886730226354204D02000E16848
:10305C008847206886731026354204D020002169E9
:10306C008847206886732026354004D0200061698B
:10307C0088472068867370BD1C04002080B5012031
:10308C0069460870172000F03CF9172000F042F94F
:10309C0048480168C20C0A43026001BD00B585B006
:1030AC00FFF7ECFF4448142101800021009100231C
:1030BC0000220C30FEF7A6FC002800D0FEE704A886
:1030CC00039007200290032001901420009000230D
:1030DC00002200210120FEF75FFE002800D0FEE751
:1030EC0004A8039007200290032001901420009064
:1030FC000023012201210120FEF74EFE002800D002
:10310C00FEE704A8039007200290032001901420EE
:10311C0000900023022202210120FEF73DFE002830
:10312C0000D0FEE704A80390072002900320019032
:10313C00142000900023032203210120FEF72CFE13
:10314C00002800D0FEE704A803900720029003207B
:10315C000190142000900023042204210120FEF78A
:10316C001BFE002800D0FEE7FEF777FE002800D0FB
:10317C00FEE705B000BD38B5002500200E4CA16857
:10318C00498889040DD42179012908D10B4A60881A
:10319C00FEF790FE012802D0002801D1257132BD26
:1031AC00FEE7FEE7044880684188C90501D4012187
:1031BC000170704720040040C4000020B1310000B1
:1031CC0070480078000601D5012070470020704738
:1031DC006D48016808220A4302606C4801210170A5
:1031EC000178C907FCD4704770B504000A78150241
:1031FC0005434878002803D028008025ED020543BC
:10320C00487A002803D0280080252D030543486800
:10321C00022816D3421E02400CD1022301E0521C9C
:10322C005B008342FBD3200014020443280080255A
:10323C006D0305E022000402144328008025AD0232
:10324C000543087A002803D028008025AD030543E8
:10325C00FFF7B6FF0028FBD100F000F94C4E74606C
:10326C00FFF7AEFF0028FBD13068B10B08402843B4
:10327C00306000F005F970BD38B50500FFF7A0FF10
:10328C000028FBD100F0EAF8414C2570FFF798FFBD
:10329C000028FBD12068A10B0143216000F0F0F85D
:1032AC0031BDF8B50400FFF78BFF0028FBD100F00F
:1032BC00D5F8374D2C70FFF783FF0028FBD1286819
:1032CC00C004C00E00F024FA06002C702868C0025E
:1032DC00C70F2C71FFF774FF0028FBD16868000240
:1032EC00040C00F0CDF8002F07D1022C07D33000CE
:1032FC002100FDF73DFC060001E0641CE6403000B7
:10330C00F2BD10B509780C02044300F00CF821480A
:10331C00048010BD10B5040000F0A0F81D48047026
:10332C000188020C19E010B5040000F097F8194858
:10333C00047001880905090F174A0388134003809C
:10334C000388164C1C40048003885B04FCD403885F
:10335C001A4009021143018001E00A43028000F087
:10336C008FF810BD10B5040000F078F8094804700F
:10337C00048800F085F82005000FFFF792FF10BDC0
:10338C0000000000010C004018040040000C00403C
:10339C00040C0040020C0040FFF00000FFBF0000D6
:1033AC00F0B50025D3788024E402002B1BD11678CD
:1033BC00802E02D03606A50835435678002E01D053
:1033CC00022E07D12E00650835439678002E00D0CA
:1033DC00254341605678012E01D0022E04D12E00D7
:1033EC00104D354000E041608EB22E43A027FF0502
:1033FC00374387620E0C2E43D0273F063743876234
:10340C00002B0DD12C4005D09378012B01D181617B
:10341C0000E041615278012A01D0022A00D181607A
:10342C00F0BD0000FFFFFBFF10B582B06A4600BF85
:10343C0009A31C681460C20903D14309DB01E3181A
:10344C0000E000230A000121C006C00E81401800D4
:10345C00FFF7A6FF13BD000000440041104841686F
:10346C00002909D1EFF31082002A04D172B6BFF300
:10347C005F8F4170012101704168491C41607047A8
:10348C0007484168491E41604168002907D101780D
:10349C00002904D001214170BFF35F8F62B67047E1
:1034AC00FC0000207FB584B000240025684630C0A5
:1034BC003F26012000213200FDF7B6FF02AA03C20D
:1034CC0024196D4104A803C802AA0CCA02400B407F
:1034DC0001D1002A02D020000124044306A803C80D
:1034EC008D420DD301D884420AD306A803C8241AEE
:1034FC008D4168460CC803C8104319436A4603C281
:10350C00761ED6D5684603C808B070BD002349089E
:10351C00814207D3091A5B1C8142FBD25B1E9BB212
:10352C00FF2B01DD40207047138000207047FCB555
:10353C0083B002000E0000240A98110041438E4211
:10354C002FD36F460021002300F08AFA03C7684688
:10355C00007C00280FD1012532000023684603C8E7
:10356C0001000020FFF79EFF241A8D412D04200C32
:10357C0005432C0019E06846007C012815D16846EB
:10358C000CC8710FF000FFF78DFF001BC0088021E5
:10359C008901884203D3641CE4B2082CEFDB082CAD
:1035AC0001D1402004E0640304430398048000200C
:1035BC0005B0F0BD38B504002A4D287801224A40E8
:1035CC0010420CD16846047069460D20FFF799FE35
:1035DC000D20FFF79FFE6C700120287002E06878C8
:1035EC00844201D1002032BD1D2032BD1E4A9042C2
:1035FC0006D01E4A904213D01D4A904220D02FE094
:10360C00002905D0022907D004D3032906D027E0CE
:10361C001848704718487047184870471848704742
:10362C00002905D0022907D004D3032906D017E0BE
:10363C001448704714487047144870471448704732
:10364C00002905D0022907D004D3032906D007E0AE
:10365C001048704710487047104870471048704722
:10366C00002070474004002000080042000C00427B
:10367C0000100042030004000300050003000600D4
:10368C0003000700020016000200170003001E00D2
:10369C0003001F00030016000300170003001000B6
:1036AC00030019003EB5694607A238CA38C100218B
:1036BC006A468B00D258904201D1C8B23EBD491C1B
:1036CC000329F5D300203EBD00080042000C004247
:1036DC00001000420121416000214170062202705D
:1036EC00017241727047494A002803D0022806D063
:1036FC0003D306E01170002070475170FBE7917006
:10370C00F9E71720704745480068C006FBD570479D
:10371C0038B504243E4D08282BD801A1095C8F44F0
:10372C000850501A1A1E0C224400286932BD394820
:10373C00394909688905890FC84032BD600332BD1B
:10374C00686932BD2868800713D5FFF7DCFF28684D
:10375C00044006D00020FFF705FEA96889B2484353
:10376C0032BD2F4832BD2F480078204201D0E86886
:10377C0032BD002032BD30B527490B680478827801
:10378C004078294D1D402302C024A4001C402C432A
:10379C00D2012243830113430B6030BD10B51C4989
:1037AC00027A9202FC231B02134042899205920D6D
:1037BC001A434A608379C2791A430223C35E1A43BF
:1037CC000423C35E1A434378DB0113430B60027876
:1037DC00042A0DD1027B9206C3891B04404C1C4069
:1037EC001443028A14438C600A68037813430B60F9
:1037FC000278202A08D1028A8A600A68007880231D
:10380C00DB00034313430B6010BD000009040040B0
:10381C00A403002000127A00200800400C0800408D
:10382C00006CDC02500800403FFCFFFF38B5854CB3
:10383C00022108282ED801A2125C97441A56560E63
:10384C001222082A4C00206901432161002032BD5C
:10385C00A0680143A160F9E7208801432180F5E7C6
:10386C00A0880143A180F1E71F4D2868014329601E
:10387C00286875490140A182FFF745FFA868E061FF
:10388C006868A0612868A082E0E7164802781143B6
:10389C000170DBE7172032BD0100002008291ED87B
:1038AC0001A35B5C9F4400BF1C36363418200A24ED
:1038BC00280008210D4B1B680B408B420FD10DE0EB
:1038CC000421F7E70121F5E70221F3E7D021F1E725
:1038DC005E4909788907890F032900D101207047B7
:1038EC000000FF0344080040A40300200C08004023
:1038FC00F0B591B0C220C000554908605548016828
:10390C001E22914302220A430260042769460F706B
:10391C00002400256946E8B2FFF7F3FC6D1C182D56
:10392C00F8D30BA80470448044600125457007212E
:10393C0001723F2141810573C581062606820770FD
:10394C004470454A1268920E3F2A00D11F2202721F
:10395C00B722D200028207220273C181FFF71EFF39
:10396C00032704A807704470857004704570FFF736
:10397C0002FF0620FFF75AFFFFF72AFC08A8FFF703
:10398C00A9FE08A80670022109910572447208A9C3
:10399C000120FFF729FC0120FFF76EFC05A8FFF7BB
:1039AC0099FE05A8077006950572447205A90220B8
:1039BC00FFF71AFC0220FFF75FFC01A8FFF78AFE55
:1039CC0001A807700295048101A90320FFF70CFCE4
:1039DC000320FFF751FC6846077069460020FFF78B
:1039EC0090FC0020FFF796FC0720FFF71FFF072035
:1039FC00FFF752FF0028FAD01548808B8021014335
:103A0C00134881830020154908700021FFF76BFED5
:103A1C0000210120FFF767FE00210220FFF763FE63
:103A2C0001A8FFF757FE01A8072101700295048138
:103A3C0001A90020FFF7D8FB0020FFF71DFC11B0F7
:103A4C00F0BD0000100800407FFF0000500800404F
:103A5C000808004004400041246080000804004035
:103A6C0030B4434351435D18010C0C00130C5C4300
:103A7C002D1980B2434392B251430024C9186441BA
:103A8C0024040B04090C09195043C018694130BCBB
:103A9C0070470000F8B50E212A4A117001007831E8
:103AAC0001220A70284BDD8800245E78002E1DD080
:103ABC009D888E69EF00F65D012E00D11A706D1C89
:103ACC009D80C688ADB2B54202D21E78002EEFD0D2
:103ADC008E69ED007619F61E357876781E816E1C8F
:103AEC005E801F89BD420BD05C700AE01E89B54216
:103AFC0003D05F887F1C5F806D1CADB2B54200D1D6
:103B0C005A70DD801C705B885C1E104B1C80104D45
:103B1C000C4E3678761EB2402A802A880D4D2A80AB
:103B2C00A4B20D6E2D5D0C4E35704D6E2D5D0B4E91
:103B3C003570496A64000A53002201001888FCF7AA
:103B4C00CDFBF1BD75000020F000002088000020A6
:103B5C008600002084000020730000206F000020ED
:103B6C00FEE70848FF218843074908600120704799
:103B7C0080B50648016880220A43026000F008F80C
:103B8C0001BD00000000000008ED00E00440004111
:103B9C00C046C046C046C04600F000F8FFF7E1FF43
:103BAC00002801D000F008F80020C046C046FEF7FF
:103BBC0027FB00F015F8000010B5074979441831BF
:103BCC00064C7C44163404E0081D0A6889188847A2
:103BDC000100A142F8D110BD60000000800000007F
:103BEC0080B500F001F801BD0746384600F002F838
:103BFC00FBE7000080B5C046C046024A1100182001
:103C0C00ABBEFBE72600020030B401210268001DA8
:103C1C00002A0FD00368C318446808300C4202D045
:103C2C004D466D1E64191D6825601B1D241D121F39
:103C3C00ECD0F8E730BC7047E7CFFFFF180300006B
:103C4C003001002000000000C1FFFFFF3001000028
:103C5C000C00000000000020000000000500050022
:103C6C00000004051400140A0804000000001400ED
:103C7C0028000C0028003201070000000C01002075
:103C8C000000000024040020140100202C0400205B
:103C9C001C0100202C010020040000005C0200200C
:103CAC00C9000000DC000020010000000000000042
:103CBC0000000500000100000000000000000000F2
:103CCC0000000000000000000000030003000000E2
:103CDC0000000000000000000000C80020030000ED
:103CEC0000000000000000000000000000000000C8
:103CFC0000000000000000000000000000000000B8
:103D0C0000000000000000000000000000000000A7
:103D1C0000000000000000000000000000000D0E7C
:103D2C000000000000000000000000000000000087
:103D3C00000000200300000001000000040000004F
:103D4C00080000004000000080000000000100009E
:103D5C000000000000000000000100000000000056
:103D6C00401F0000080000000101010101000000DB
:103D7C000300000000000000030000000000000031
:0C3D8C003F1C0B050301000000010200B9
:0400000500003B9D1F
:00000001FF
